:100000000C945E000C9486000C9486000C94860080
:100010000C9486000C9486000C9486000C94840446
:100020000C9486000C9486000C9486000C94860038
:100030000C9486000C9486000C9486000C94860028
:100040000C943A040C9486000C9406050C94E0047D
:100050000C9486000C9486000C9486000C94860008
:100060000C9486000C948600020000000800020137
:100070000000030407000000000000000000000072
:1000800000250028002B0000000000240027002A83
:100090000004040404040404040202020202020331
:1000A000030303030301020408102040800102043B
:1000B00008102001020408102000380511241FBE7A
:1000C000CFEFD8E0DEBFCDBF22E0A6E4B1E001C0B3
:1000D0001D92A931B207E1F711E0A0E0B1E0E8E339
:1000E000F4E102C005900D92A634B107D9F710E0F3
:1000F000CEE5D0E004C02197FE010E941908CD355D
:10010000D107C9F70E9482050C941A0A0C940000CA
:1001100090E0FC01EB55FF4F24918F569F4FFC015F
:100120008491882399F090E0880F991FFC01E9578A
:10013000FF4FA591B491FC01E358FF4F8591949135
:100140008FB7F894EC91E22BEC938FBF089590E079
:10015000FC01E759FF4F2491FC01EB55FF4F34910F
:10016000FC01EF56FF4FE491EE23C9F0222339F052
:10017000233001F1A8F4213019F1223029F1F0E007
:10018000EE0FFF1FE358FF4FA591B4918FB7F8947E
:10019000EC91611126C030953E233C938FBF0895AA
:1001A0002730A9F02830C9F0243049F78091800029
:1001B0008F7D03C0809180008F7780938000DFCF98
:1001C00084B58F7784BDDBCF84B58F7DFBCF8091E5
:1001D000B0008F778093B000D2CF8091B0008F7D38
:1001E000F9CF3E2BDACF3FB7F89480915801909128
:1001F0005901A0915A01B0915B0126B5A89B05C099
:100200002F3F19F00196A11DB11D3FBFBA2FA92F95
:10021000982F8827BC01CD01620F711D811D911D92
:1002200042E0660F771F881F991F4A95D1F70895FE
:100230008F929F92AF92BF92CF92DF92EF92FF92F6
:100240000E94F3004B015C0184EFC82EDD24D3949F
:10025000E12CF12C0E94F300681979098A099B09A5
:10026000683E734081059105A8F321E0C21AD108C8
:10027000E108F10888EE880E83E0981EA11CB11CED
:10028000C114D104E104F10429F7FF90EF90DF904D
:10029000CF90BF90AF909F908F9008959091000164
:1002A00089130BC0E8E6F0E0E4919FEF9093000122
:1002B000E13049F028F0E23061F060E00C94A700F2
:1002C00010926E00FACF90916F009D7F90936F0017
:1002D000F4CF909170009D7F9093700091E0909387
:1002E000B0009091B100987F94609093B10010920B
:1002F000B300E3CFAF92BF92CF92DF92EF92FF9223
:100300000F931F93CF93DF936C017B018B01040F3D
:10031000151FEB015E01AE18BF08C017D10759F0D9
:100320006991D601ED91FC910190F081E02DC6011B
:100330000995892B79F7C501DF91CF911F910F9115
:10034000FF90EF90DF90CF90BF90AF900895FC01A9
:10035000538D448D252F30E0842F90E0821B930B2A
:10036000541710F0CF96089501970895FC01918DD0
:10037000828D981761F0A28DAE0FBF2FB11D5D96D3
:100380008C91928D9F5F9F73928F90E008958FEF75
:100390009FEF08952FB7F89480915C0190915D01D3
:1003A000A0915E01B0915F012FBF8093680190938F
:1003B0006901A0936A01B0936B0180E691E00E940D
:1003C000B60197FF26C02FB7F89480915C019091F9
:1003D0005D01A0915E01B0915F012FBF4091680166
:1003E0005091690160916A0170916B01841B950BBA
:1003F000A60BB70B409164015091650160916601B5
:100400007091670184179507A607B707B0F28FEFC1
:100410009FEF0895FC01918D828D981731F0828DA8
:10042000E80FF11D858D90E008958FEF9FEF0895FF
:10043000FC01918D228D892F90E0805C9F4F821B63
:1004400091098F739927089580E691E00E94180220
:1004500021E0892B09F420E0822F089580E090E0CC
:10046000892B29F00E94240281110C940000089528
:10047000FC01A48DA80FB92FB11DA35ABF4F2C9119
:10048000848D90E001968F739927848FA689B78910
:100490002C93A089B1898C91837080648C93938D07
:1004A000848D981306C00288F389E02D80818F7DAA
:1004B00080830895EF92FF920F931F93CF93DF9362
:1004C000EC0181E0888F9B8D8C8D98131AC0E88990
:1004D000F989808185FF15C09FB7F894EE89FF895F
:1004E0006083E889F98980818370806480839FBFFD
:1004F00081E090E0DF91CF911F910F91FF90EF90FD
:100500000895F62E0B8D10E00F5F1F4F0F7311270C
:10051000E02E8C8D8E110CC00FB607FCFACFE88947
:10052000F989808185FFF5CFCE010E943802F1CF95
:10053000EB8DEC0FFD2FF11DE35AFF4FF0829FB7BB
:10054000F8940B8FEA89FB8980818062CFCFCF93AB
:10055000DF93EC01888D8823B9F0AA89BB89E889EB
:10056000F9898C9185FD03C0808186FD0DC00FB691
:1005700007FCF7CF8C9185FFF2CF808185FFEDCF0F
:10058000CE010E943802E9CFDF91CF9108950895FE
:1005900090E080E008950F931F93CF93DF93EC01D9
:1005A00088819981009759F02A813B812617370766
:1005B00030F081E0DF91CF911F910F9108958B0171
:1005C0006F5F7F4F0E944409009759F09983888399
:1005D0001B830A832C813D81232B59F7FC01108258
:1005E000E8CF80E0E7CFCF93DF93EC0160E08E812E
:1005F0000E94A70061E08E810E94A70060E08E81CA
:100600000E94A7008BE891E00197F1F7DF91CF916D
:100610000895CF92DF92EF92FF920F931F93CF93A3
:10062000DF936C017C0187E0E80EF11CD0E0C0E0B4
:10063000062F10E0B8010C2E02C0759567950A943C
:10064000E2F76170F70181917F010E94A700219676
:10065000C430D10579F7C601DF91CF911F910F9179
:10066000FF90EF90DF90CF900C94F302CF92DF9247
:10067000EF92FF920F931F93CF93DF93EC01F62E2F
:10068000642F8C810E94A7008D818F3F19F060E05C
:100690000E94A7000F2D10E08F8584FF25C06E01FA
:1006A00087E0C80ED11CF12CE12CB8010E2C02C041
:1006B000759567950A94E2F76170F60181916F0173
:1006C0000E94A700FFEFEF1AFF0A88E0E816F10486
:1006D00061F7CE01DF91CF911F910F91FF90EF90C5
:1006E000DF90CF900C94F302B80184E07595679584
:1006F0008A95E1F7CE010E9409036F2DCE01DF91AB
:10070000CF911F910F91FF90EF90DF90CF900C94BD
:10071000090340E0682F8DEF91E00C94360381E0EF
:100720000E9489038BE39FE10197F1F70895CF932E
:10073000DF93823029F490910C02986090930C0220
:10074000809310021092110280E48093120280E1E3
:100750008093130280E580931402809101020E942D
:100760008800809102028F3F11F00E9488008091E2
:1007700003020E948800CDEFD1E09E012D5F314041
:1007800080910C0284FD0AC084E090E02196281735
:1007900039073CF48E810E948800EFCF88E090E01A
:1007A000F5CF8BE39DE00197F1F760E080910102C6
:1007B0000E94A70060E0809103020E94A700809140
:1007C00002028F3F19F060E00E94A70080910C02A6
:1007D00084FD34C063E08DEF91E00E940903CBE417
:1007E000D6E4CE010197F1F763E08DEF91E00E942E
:1007F00009032197F1F763E08DEF91E00E9409036F
:1008000083E592E00197F1F762E08DEF91E00E94BD
:10081000090380910C0280620E94890384E0809326
:100820000D028CE00E9489030E948F0382E0809376
:100830000E0286E0DF91CF910C94890380620E94C2
:1008400089038BE496E40197F1F780910C028062B2
:100850000E94890383E592E00197F1F780910C02F1
:1008600080620E948903D5CF41E00E94360381E077
:1008700090E008951F920F920FB60F9211242F93BC
:100880003F938F939F93AF93BF9380915C0190911F
:100890005D01A0915E01B0915F013091570123E0AD
:1008A000230F2D3758F50196A11DB11D2093570137
:1008B00080935C0190935D01A0935E01B0935F0112
:1008C0008091580190915901A0915A01B0915B011A
:1008D0000196A11DB11D8093580190935901A093D9
:1008E0005A01B0935B01BF91AF919F918F913F915E
:1008F0002F910F900FBE0F901F90189526E8230F91
:100900000296A11DB11DD2CF1F920F920FB60F926A
:1009100011242F933F934F935F936F937F938F9304
:100920009F93AF93BF93EF93FF9380914B0190916F
:100930004C01A0914D01B0914E01892B8A2B8B2B3C
:10094000D1F190914601E0914701F09148018081F9
:100950008927808380914B0190914C01A0914D019A
:10096000B0914E01181619061A061B069CF48091C8
:100970004B0190914C01A0914D01B0914E01019716
:10098000A109B10980934B0190934C01A0934D01B3
:10099000B0934E01FF91EF91BF91AF919F918F91D5
:1009A0007F916F915F914F913F912F910F900FBE6B
:1009B0000F901F901895809100010E944E01EACF80
:1009C0001F920F920FB60F9211242F933F934F93C4
:1009D0005F936F937F938F939F93AF93BF93EF93A7
:1009E000FF9380E691E00E943802FF91EF91BF9162
:1009F000AF919F918F917F916F915F914F913F91B7
:100A00002F910F900FBE0F901F9018951F920F926D
:100A10000FB60F9211242F938F939F93EF93FF9311
:100A2000E0917001F09171018081E0917601F09187
:100A3000770182FD1BC09081809179018F5F8F7358
:100A400020917A01821741F0E0917901F0E0E05ABB
:100A5000FE4F958F80937901FF91EF919F918F9138
:100A60002F910F900FBE0F901F9018958081F4CF9B
:100A7000E0E6F1E01382128288EE93E0A0E0B0E0BD
:100A800084839583A683B7838BE091E091838083F1
:100A900085EC90E09587848784EC90E09787868743
:100AA00080EC90E0918B808B81EC90E0938B828B3B
:100AB00082EC90E0958B848B86EC90E0978B868B14
:100AC000118E128E138E148EEDEFF1E013821282CE
:100AD0008DE191E0918380838CE084838FEF858327
:100AE0008BE0868387E0878386E0808785E0818747
:100AF00084E082871386148615861686178681E021
:100B00000C949703CF93DF93CDB7DEB728970FB63A
:100B1000F894DEBF0FBECDBF789484B5826084BDEB
:100B200084B5816084BD85B5826085BD85B58160F1
:100B300085BD80916E00816080936E00109281006F
:100B4000809181008260809381008091810081602A
:100B500080938100809180008160809380008091EB
:100B6000B10084608093B1008091B0008160809377
:100B7000B00080917A00846080937A0080917A003E
:100B8000826080937A0080917A00816080937A00FD
:100B900080917A00806880937A001092C10082E090
:100BA0000E9497038DE00E94880088E00E948800E0
:100BB000E0917001F091710182E08083E0916C011D
:100BC000F0916D011082E0916E01F0916F018FEC58
:100BD000808310927801E0917401F091750186E0B4
:100BE0008083E0917201F091730180818061808344
:100BF000E0917201F0917301808188608083E091BF
:100C00007201F0917301808180688083E0917201AC
:100C1000F091730180818F7D808344244A94542C09
:100C2000320139E9832E30E0932E4DEAA42E40E0C4
:100C3000B42E80E691E00E941802181619060CF0F6
:100C400090C11A8219821C821B821E821D8270E052
:100C500060E0CE0101960E94CB0229813A81811188
:100C60002EC02115310519F0C9010E94BB081A8256
:100C700019821E821D821C821B820E94CA010D8164
:100C80001E8197FD24C08A30910509F18F83188653
:100C90000F5F1F4FB801CE0101960E94CB0288233F
:100CA00061F329813A818D819E81BE01695F7F4F09
:100CB000820F931F0E94130A1E830D83DECF1E82B4
:100CC0001D8265E471E0C9010E94130AD6CFC98074
:100CD000DA80C114D10429F076010115110509F05B
:100CE0004FC08D819E81892B09F435C165E271E089
:100CF00089819A810E940A0A892B09F02CC10E94DD
:100D00008F0344E050E065E371E08DEF91E00E94D5
:100D10007A01E0911002E23008F068C0E150F0E0A2
:100D2000E350FE4F848980680E9489034BE050E0C5
:100D30006AE371E08DEF91E00E947A010AE010E031
:100D400061E08DE00E94A70080910001883009F0E9
:100D50004FC0E8E6F0E0F490F7FCECC088E00E94B9
:100D60008800FF2009F4B6C0F2E0FF12C7C08091EE
:100D7000B100887F84608093B10089EF07C1710161
:100D800017018FEF281A380AF7018081082E000C0E
:100D9000990B0E94D607892B91F7015011090C0D70
:100DA0001D1DF8018081082E000C990B0E94D607AA
:100DB000892B31F00E151F0518F001501109F1CFE4
:100DC000A8014F5F5F4F4E195F095E834D83CE14BC
:100DD000DF0420F4B701C6010E94010AE981FA810B
:100DE0008D819E81E80FF91F10827BCFE1E097CFC4
:100DF0008F3F09F09FC088E080930001E8E6F0E0B3
:100E0000F490FFEFFF1609F495C081E0F81621F188
:100E1000F81650F092E0F91609F43BC0F7FC8AC0CE
:100E200088E00E948800A0CF14BC15BC84B5826005
:100E300084BD85B5816085BDF4018491E82FF0E023
:100E4000EE0FFF1FE358FF4F85919491F5018491B8
:100E500080934A01F12C82CF109280001092810081
:100E60008091810088608093810080918100816001
:100E700080938100F4018491E82FF0E0EE0FFF1FD2
:100E8000E358FF4F85919491F50184918093490136
:100E900065CF1092B0001092B1008091B0008260D6
:100EA0008093B0008091B10081608093B100F40123
:100EB0008491E82FF0E0EE0FFF1FE358FF4F85917C
:100EC00094919093480180934701F5018491809318
:100ED000460144CF85B5887F836085BD89EF87BD96
:100EE0004092530150925401609255017092560104
:100EF00080916E00826080936E001CC081E0F812C9
:100F00003DC080918100887F816080938100EFE700
:100F1000FEE3F0938900E093880040924F015092E5
:100F20005001609251017092520180916F00826075
:100F300080936F000E94180160E08DE00E94A7007E
:100F400088E00E944E010E9418010150110909F029
:100F5000F7CE0E948F0389819A81009711F00E9439
:100F6000BB0880E090E0892B09F463CE0E94240244
:100F7000882309F456CE0E94000053CEF2E0FF16FB
:100F800021F0F110D7CF8FE7AACF8FE78093B3007E
:100F900040924B0150924C0160924D0170924E0173
:100FA00080917000826080937000C4CF91110C9486
:100FB000DF07803219F089508550C8F708959927C6
:100FC000882708952F923F924F925F926F927F925F
:100FD0008F929F92AF92BF92CF92DF92EF92FF9249
:100FE0000F931F93CF93DF93CDB7DEB7CA1BDB0BF5
:100FF0000FB6F894DEBF0FBECDBF09942A8839889A
:1010000048885F846E847D848C849B84AA84B984A0
:10101000C884DF80EE80FD800C811B81AA81B981AC
:10102000CE0FD11D0FB6F894DEBF0FBECDBFED01C0
:101030000895EE0FFF1F0590F491E02D09940F9392
:101040001F93CF93DF938230910510F482E090E0FC
:10105000E0911702F091180230E020E0B0E0A0E04B
:10106000309799F42115310509F44AC0281B390B32
:1010700024303105D8F58A819B816115710589F18C
:10108000FB0193838283FE0111C040815181028163
:10109000138148175907E0F04817590799F410973A
:1010A00061F012960C93129713961C933296CF010F
:1010B000DF91CF911F910F91089500931702109324
:1010C0001802F4CF2115310551F04217530738F0BB
:1010D000A901DB019A01BD01DF01F801C1CFEF01D8
:1010E000F9CF9093180280931702CDCFFE01E20F43
:1010F000F31F819391932250310939832883D7CFED
:101100002091150230911602232B41F42091030106
:1011100030910401309316022093150220910101B1
:10112000309102012115310541F42DB73EB74091B0
:10113000050150910601241B350BE0911502F09139
:101140001602E217F307A0F42E1B3F0B28173907EE
:1011500078F0AC014E5F5F4F2417350748F04E0F13
:101160005F1F5093160240931502819391939FCF76
:10117000F0E0E0E09CCFCF93DF930097E9F0FC0133
:10118000329713821282A0911702B0911802ED01DA
:1011900030E020E01097A1F420813181820F931F6D
:1011A00020911502309116022817390709F061C005
:1011B000F0931602E0931502DF91CF910895EA01B2
:1011C000CE17DF07E8F54A815B819E014115510585
:1011D000B1F7E901FB83EA8349915991C40FD51F07
:1011E000EC17FD0761F4808191810296840F951FB1
:1011F000E90199838883828193819B838A83F0E0CC
:10120000E0E012968D919C9113970097B9F52D917E
:101210003C911197CD010296820F931F20911502E8
:10122000309116022817390739F6309751F5109288
:10123000180210921702B0931602A0931502BCCFA9
:10124000D383C28340815181840F951FC817D9076A
:1012500061F44E5F5F4F88819981480F591F518318
:1012600040838A819B81938382832115310509F014
:10127000B0CFF0931802E09317029ECFFD01DC017E
:10128000C0CF13821282D7CFB0E0A0E0EAE4F9E049
:101290000C94E4078C01009751F4CB010E941F08C5
:1012A0008C01C801CDB7DEB7E0E10C940008FC0169
:1012B000E60FF71F9C0122503109E217F30708F4EB
:1012C0009DC0D901CD91DC911197C617D70798F031
:1012D000C530D10530F3CE0104978617970708F380
:1012E000C61BD70B2297C193D1936D937C93CF01EB
:1012F0000E94BB08D6CF5B01AC1ABD0A4C018C0E14
:101300009D1EA0911702B0911802512C412CF12C76
:10131000E12C109731F580911502909116028815F5
:10132000990509F05CC04616570608F058C0809130
:10133000010190910201009741F48DB79EB7409151
:10134000050150910601841B950BE817F90708F079
:1013500055C0F0931602E0931502F9017183608382
:10136000A0CF8D919C91119712966C901297139625
:101370007C901397A815B90559F56C0142E0C40E8D
:10138000D11CCA14DB0420F1AC014A195B09DA0153
:101390001296159780F06282738251834083D9013F
:1013A0006D937C93E114F10471F0D7011396FC93D3
:1013B000EE93129776CF22968C0F9D1FF9019183A1
:1013C0008083F301EFCFF0931802E093170269CF07
:1013D0004816590608F42C017D01D3019ACFCB01A0
:1013E0000E941F087C01009749F0AE01B8010E94DD
:1013F000010AC8010E94BB08870153CF10E000E03A
:1014000050CFFB01DC0102C001900D9241505040D1
:10141000D8F70895FB01DC018D910190801901102E
:10142000D9F3990B0895FB01DC0101900D92002086
:08143000E1F70895F894FFCFE5
:10143800FF000019028000000000005A027A01A78C
:1014480001A7021802B6010A020000000034047A5B
:1014580001C802C70241726D6120656E636F6E74C8
:10146800726164610041726D6100456E636F6E74F4
:06147800726164612100B5
:00000001FF
